{
  "transactions": [
    {
      "hash": "0xf83f9fe45b268ec619b85fdabddfeeceb4d80918c4a6149b312cdae372451c2d",
      "transactionType": "CALL",
      "contractName": null,
      "contractAddress": "0x779877a7b0d9e8603169ddbd7836e478b4624789",
      "function": "transferAndCall(address,uint256,bytes)",
      "arguments": [
        "0x9DdfaCa8183c41ad55329BdeeD9F6A8d53168B1B",
        "3000000000000000000",
        "0xf3a8ae96b7d3ed67c36c6a7a257ec2e8b8575f7c6f9c178c7c0fe295a3946ce2"
      ],
      "transaction": {
        "from": "0x6ddee759e936b0d705c4997ec9972e307a1452b5",
        "to": "0x779877a7b0d9e8603169ddbd7836e478b4624789",
        "gas": "0x1c1ff",
        "value": "0x0",
        "input": "0x4000aea00000000000000000000000009ddfaca8183c41ad55329bdeed9f6a8d53168b1b00000000000000000000000000000000000000000000000029a2241af62c000000000000000000000000000000000000000000000000000000000000000000600000000000000000000000000000000000000000000000000000000000000020f3a8ae96b7d3ed67c36c6a7a257ec2e8b8575f7c6f9c178c7c0fe295a3946ce2",
        "nonce": "0x13",
        "chainId": "0xaa36a7"
      },
      "additionalContracts": [],
      "isFixedGasLimit": false
    }
  ],
  "receipts": [
    {
      "status": "0x1",
      "cumulativeGasUsed": "0x9eb65a",
      "logs": [
        {
          "address": "0x779877a7b0d9e8603169ddbd7836e478b4624789",
          "topics": [
            "0xddf252ad1be2c89b69c2b068fc378daa952ba7f163c4a11628f55a4df523b3ef",
            "0x0000000000000000000000006ddee759e936b0d705c4997ec9972e307a1452b5",
            "0x0000000000000000000000009ddfaca8183c41ad55329bdeed9f6a8d53168b1b"
          ],
          "data": "0x00000000000000000000000000000000000000000000000029a2241af62c0000",
          "blockHash": "0xe402a7aa6565b3ae9e7a2a243b6d692ab740bb17563bdbd09a05c899c21b3404",
          "blockNumber": "0x8fb422",
          "blockTimestamp": "0x68efb2e8",
          "transactionHash": "0xf83f9fe45b268ec619b85fdabddfeeceb4d80918c4a6149b312cdae372451c2d",
          "transactionIndex": "0x44",
          "logIndex": "0x7a",
          "removed": false
        },
        {
          "address": "0x779877a7b0d9e8603169ddbd7836e478b4624789",
          "topics": [
            "0xe19260aff97b920c7df27010903aeb9c8d2be5d310a2c67824cf3f15396e4c16",
            "0x0000000000000000000000006ddee759e936b0d705c4997ec9972e307a1452b5",
            "0x0000000000000000000000009ddfaca8183c41ad55329bdeed9f6a8d53168b1b"
          ],
          "data": "0x00000000000000000000000000000000000000000000000029a2241af62c000000000000000000000000000000000000000000000000000000000000000000400000000000000000000000000000000000000000000000000000000000000020f3a8ae96b7d3ed67c36c6a7a257ec2e8b8575f7c6f9c178c7c0fe295a3946ce2",
          "blockHash": "0xe402a7aa6565b3ae9e7a2a243b6d692ab740bb17563bdbd09a05c899c21b3404",
          "blockNumber": "0x8fb422",
          "blockTimestamp": "0x68efb2e8",
          "transactionHash": "0xf83f9fe45b268ec619b85fdabddfeeceb4d80918c4a6149b312cdae372451c2d",
          "transactionIndex": "0x44",
          "logIndex": "0x7b",
          "removed": false
        },
        {
          "address": "0x9ddfaca8183c41ad55329bdeed9f6a8d53168b1b",
          "topics": [
            "0x1ced9348ff549fceab2ac57cd3a9de38edaaab274b725ee82c23e8fc8c4eec7a",
            "0xf3a8ae96b7d3ed67c36c6a7a257ec2e8b8575f7c6f9c178c7c0fe295a3946ce2"
          ],
          "data": "0x000000000000000000000000000000000000000000000000000000000000000000000000000000000000000000000000000000000000000029a2241af62c0000",
          "blockHash": "0xe402a7aa6565b3ae9e7a2a243b6d692ab740bb17563bdbd09a05c899c21b3404",
          "blockNumber": "0x8fb422",
          "blockTimestamp": "0x68efb2e8",
          "transactionHash": "0xf83f9fe45b268ec619b85fdabddfeeceb4d80918c4a6149b312cdae372451c2d",
          "transactionIndex": "0x44",
          "logIndex": "0x7c",
          "removed": false
        }
      ],
      "logsBloom": "0x00000004000000000000000000000000000000000020000000000000020000000000000000000000000080000000004000000000000000000000000000000000000000000400000000001008000000000000008000000000000020000020000008000000000000000000000000000000000000000000000000000010000040000000000000000000000000010000800000000020000000000000000000000000000000000000000000000000010000000000000000000000000004000000000000000002000000000000000000000000000000000000000100000000000000000010000000000000800800000000000000000000000000000000000000000000",
      "type": "0x2",
      "transactionHash": "0xf83f9fe45b268ec619b85fdabddfeeceb4d80918c4a6149b312cdae372451c2d",
      "transactionIndex": "0x44",
      "blockHash": "0xe402a7aa6565b3ae9e7a2a243b6d692ab740bb17563bdbd09a05c899c21b3404",
      "blockNumber": "0x8fb422",
      "gasUsed": "0x133b1",
      "effectiveGasPrice": "0xfa915",
      "from": "0x6ddee759e936b0d705c4997ec9972e307a1452b5",
      "to": "0x779877a7b0d9e8603169ddbd7836e478b4624789",
      "contractAddress": null
    }
  ],
  "libraries": [],
  "pending": [],
  "returns": {},
  "timestamp": 1760539370698,
  "chain": 11155111,
  "commit": null
}